{
  "contractName": "TestCon",
  "abi": [
    {
      "inputs": [
        {
          "internalType": "contract GargToken",
          "name": "_tokenContract",
          "type": "address"
        }
      ],
      "payable": true,
      "stateMutability": "payable",
      "type": "constructor"
    },
    {
      "anonymous": false,
      "inputs": [
        {
          "indexed": false,
          "internalType": "address",
          "name": "_buyer",
          "type": "address"
        },
        {
          "indexed": false,
          "internalType": "uint256",
          "name": "_amount",
          "type": "uint256"
        }
      ],
      "name": "Sell",
      "type": "event"
    },
    {
      "constant": true,
      "inputs": [],
      "name": "_owner",
      "outputs": [
        {
          "internalType": "address payable",
          "name": "",
          "type": "address"
        }
      ],
      "payable": false,
      "stateMutability": "view",
      "type": "function"
    },
    {
      "constant": true,
      "inputs": [],
      "name": "tokenContract",
      "outputs": [
        {
          "internalType": "contract GargToken",
          "name": "",
          "type": "address"
        }
      ],
      "payable": false,
      "stateMutability": "view",
      "type": "function"
    },
    {
      "constant": false,
      "inputs": [
        {
          "internalType": "uint256",
          "name": "_numberOfTokens",
          "type": "uint256"
        }
      ],
      "name": "buyfirst",
      "outputs": [],
      "payable": true,
      "stateMutability": "payable",
      "type": "function"
    }
  ],
  "bytecode": "0x608060405273c11e769ce3bfa4a1fca8a7bcac8cc3459c77cba4600260006101000a81548173ffffffffffffffffffffffffffffffffffffffff021916908373ffffffffffffffffffffffffffffffffffffffff1602179055506040516104753803806104758339818101604052602081101561007b57600080fd5b8101908080519060200190929190505050806000806101000a81548173ffffffffffffffffffffffffffffffffffffffff021916908373ffffffffffffffffffffffffffffffffffffffff16021790555033600160006101000a81548173ffffffffffffffffffffffffffffffffffffffff021916908373ffffffffffffffffffffffffffffffffffffffff160217905550506103588061011d6000396000f3fe6080604052600436106100345760003560e01c806355a373d614610039578063b2bdfa7b14610090578063c819494d146100e7575b600080fd5b34801561004557600080fd5b5061004e610115565b604051808273ffffffffffffffffffffffffffffffffffffffff1673ffffffffffffffffffffffffffffffffffffffff16815260200191505060405180910390f35b34801561009c57600080fd5b506100a561013a565b604051808273ffffffffffffffffffffffffffffffffffffffff1673ffffffffffffffffffffffffffffffffffffffff16815260200191505060405180910390f35b610113600480360360208110156100fd57600080fd5b8101908080359060200190929190505050610160565b005b6000809054906101000a900473ffffffffffffffffffffffffffffffffffffffff1681565b600160009054906101000a900473ffffffffffffffffffffffffffffffffffffffff1681565b7f5e5e995ce3133561afceaa51a9a154d5db228cd7525d34df5185582c18d3df093382604051808373ffffffffffffffffffffffffffffffffffffffff1673ffffffffffffffffffffffffffffffffffffffff1681526020018281526020019250505060405180910390a16000809054906101000a900473ffffffffffffffffffffffffffffffffffffffff1673ffffffffffffffffffffffffffffffffffffffff1663a9059cbb33836040518363ffffffff1660e01b8152600401808373ffffffffffffffffffffffffffffffffffffffff1673ffffffffffffffffffffffffffffffffffffffff16815260200182815260200192505050602060405180830381600087803b15801561027357600080fd5b505af1158015610287573d6000803e3d6000fd5b505050506040513d602081101561029d57600080fd5b81019080805190602001909291905050506102b757600080fd5b600260009054906101000a900473ffffffffffffffffffffffffffffffffffffffff1673ffffffffffffffffffffffffffffffffffffffff166108fc349081150290604051600060405180830381858888f1935050505015801561031f573d6000803e3d6000fd5b505056fea265627a7a723158202269fd4663ddbb3e9f95e212b16557b3b66e2350e194d471fdac941e914d3c3064736f6c63430005100032",
  "source": "pragma solidity ^0.5.16;\r\n// import \"zeppelin-solidity/contracts/token/ERC20/StandardToken.sol\";\r\nimport \"./GargToken.sol\";\r\n\r\ncontract TestCon{\r\n\r\n  GargToken public tokenContract;\r\n  address payable public _owner;\r\n  address payable wallet = 0xc11e769CE3bfa4a1FCA8A7BCac8Cc3459c77Cba4;\r\n  event Sell(address _buyer, uint256 _amount);\r\n  constructor(GargToken _tokenContract) public payable{\r\n    tokenContract = _tokenContract;\r\n    _owner = msg.sender;\r\n  }\r\n  function buyfirst(uint256 _numberOfTokens) external payable{\r\n    emit Sell(msg.sender,_numberOfTokens);\r\n    require(\r\n      tokenContract.transfer(msg.sender,_numberOfTokens)\r\n    );\r\n    wallet.transfer(msg.value);\r\n  }\r\n}\r\n",
  "sourcePath": "Z:/CT-Code/testCon/contracts/1_testCon.sol",
  "compiler": {
    "name": "solc",
    "version": "0.5.16+commit.9c3226ce.Emscripten.clang"
  },
  "schemaVersion": "3.3.4",
  "updatedAt": "2021-02-26T06:29:22.996Z",
  "devdoc": {
    "methods": {}
  },
  "userdoc": {
    "methods": {}
  }
}